:100000008027002069430000579300003D43000013
:100010003D4300003D4300003D4300000000000060
:10002000000000000000000000000000353C00005F
:100030003D43000000000000DD3B00003D430000A8
:10004000E93C0000E93C0000E93C0000E93C00001C
:10005000E93C0000E93C0000E93C0000E93C00000C
:10006000E93C0000E93C0000E93C0000E93C0000FC
:10007000E93C0000E93C0000E93C0000E93C0000EC
:10008000E93C0000E93C0000E93C0000E93C0000DC
:10009000E93C0000E93C0000E93C0000E93C0000CC
:1000A000E93C0000E93C0000E93C0000E93C0000BC
:1000B000E93C0000E93C0000E93C0000E93C0000AC
:1000C000E93C0000E93C0000E93C0000E93C00009C
:1000D000E93C0000E93C0000E93C0000E93C00008C
:1000E000E93C0000E93C0000E93C0000E93C00007C
:1000F000E93C0000E93C0000E93C0000E93C00006C
:1001000081F0004102E000BF83F0004330B54FEAC8
:1001100041044FEA430594EA050F08BF90EA020F35
:100120001FBF54EA000C55EA020C7FEA645C7FEAC8
:10013000655C00F0E2804FEA5454D4EB5555B8BFEB
:100140006D420CDD2C4480EA020281EA030382EA5C
:10015000000083EA010180EA020281EA0303362DEE
:1001600088BF30BD11F0004F4FEA01314FF4801CC1
:100170004CEA113102D0404261EB410113F0004FD3
:100180004FEA03334CEA133302D0524263EB43038A
:1001900094EA050F00F0A780A4F10104D5F1200E28
:1001A0000DDB02FA0EFC22FA05F2801841F1000183
:1001B00003FA0EF2801843FA05F359410EE0A5F157
:1001C00020050EF1200E012A03FA0EFC28BF4CF088
:1001D000020C43FA05F3C01851EBE37101F000453E
:1001E00007D54FF0000EDCF1000C7EEB00006EEB4B
:1001F0000101B1F5801F1BD3B1F5001F0CD34908D5
:100200005FEA30004FEA3C0C04F101044FEA44522B
:1002100012F5800F80F09A80BCF1004F08BF5FEAB2
:10022000500C50F1000041EB045141EA050130BD92
:100230005FEA4C0C404141EB0101013C28BFB1F5A4
:10024000801FE9D291F0000F04BF01460020B1FAEF
:1002500081F308BF2033A3F10B03B3F120020CDAC2
:100260000C3208DD02F1140CC2F10C0201FA0CF0A0
:1002700021FA02F10CE002F11402D8BFC2F1200C05
:1002800001FA02F120FA0CFCDCBF41EA0C019040BB
:10029000E41AA2BF01EB0451294330BD6FEA040404
:1002A0001F3C1CDA0C340EDC04F11404C4F12002EF
:1002B00020FA04F001FA02F340EA030021FA04F301
:1002C00045EA030130BDC4F10C04C4F1200220FA58
:1002D00002F001FA04F340EA0300294630BD21FA96
:1002E00004F0294630BD94F0000F83F4801306BF5C
:1002F00081F480110134013D4EE77FEA645C18BF50
:100300007FEA655C29D094EA050F08BF90EA020FE6
:1003100005D054EA000C04BF1946104630BD91EADE
:10032000030F1EBF0021002030BD5FEA545C05D1E1
:100330004000494128BF41F0004130BD14F5800420
:100340003CBF01F5801130BD01F0004545F0FE4194
:1003500041F470014FF0000030BD7FEA645C1ABFC9
:10036000194610467FEA655C1CBF0B46024650EA00
:10037000013406BF52EA033591EA030F41F400212C
:1003800030BD00BF90F0000F04BF0021704730B5B2
:100390004FF4806404F132044FF000054FF0000187
:1003A00050E700BF90F0000F04BF0021704730B548
:1003B0004FF4806404F1320410F0004548BF40421D
:1003C0004FF000013EE700BF42004FEAE2014FEA72
:1003D00031014FEA02701FBF12F07F4393F07F4F4D
:1003E00081F06051704732F07F4208BF704793F050
:1003F0007F4F04BF41F40021704730B54FF4607463
:1004000001F0004521F000411CE700BF50EA010265
:1004100008BF704730B54FF000050AE050EA01020E
:1004200008BF704730B511F0004502D5404261EB7E
:1004300041014FF4806404F132045FEA915C3FF4BF
:10044000D8AE4FF003025FEADC0C18BF03325FEA5C
:10045000DC0C18BF033202EBDC02C2F1200300FA0D
:1004600003FC20FA02F001FA03FE40EA0E0021FA32
:1004700002F11444BDE600BF70B54FF0FF0C4CF420
:10048000E06C1CEA11541DBF1CEA135594EA0C0FD2
:1004900095EA0C0F00F0DEF82C4481EA030621EA0D
:1004A0004C5123EA4C5350EA013518BF52EA033548
:1004B00041F4801143F4801338D0A0FB02CE4FF0FA
:1004C0000005E1FB02E506F00042E0FB03E54FF02A
:1004D0000006E1FB03569CF0000F18BF4EF0010E22
:1004E000A4F1FF04B6F5007F64F5407404D25FEA1E
:1004F0004E0E6D4146EB060642EAC62141EA5551D1
:100500004FEAC52040EA5E504FEACE2EB4F1FD0C12
:1005100088BFBCF5E06F1ED8BEF1004F08BF5FEA90
:10052000500E50F1000041EB045170BD06F0004642
:1005300046EA010140EA020081EA0301B4EB5C04EF
:10054000C2BFD4EB0C0541EA045170BD41F48011E7
:100550004FF0000E013C00F3AB8014F1360FDEBF0C
:10056000002001F0004170BDC4F10004203C35DAE8
:100570000C341BDC04F11404C4F1200500FA05F36B
:1005800020FA04F001FA05F240EA020001F000420C
:1005900021F0004110EBD37021FA04F642EB060182
:1005A0005EEA430E08BF20EAD37070BDC4F10C04AC
:1005B000C4F1200500FA04F320FA05F001FA04F270
:1005C00040EA020001F0004110EBD37041F100015C
:1005D0005EEA430E08BF20EAD37070BDC4F1200567
:1005E00000FA05F24EEA020E20FA04F301FA05F2CF
:1005F00043EA020321FA04F001F0004121FA04F277
:1006000020EA020000EBD3705EEA430E08BF20EA46
:10061000D37070BD94F0000F0FD101F00046400080
:1006200041EB010111F4801F08BF013CF7D041EA02
:10063000060195F0000F18BF704703F00046520006
:1006400043EB030313F4801F08BF013DF7D043EAD7
:100650000603704794EA0C0F0CEA135518BF95EA8D
:100660000C0F0CD050EA410618BF52EA4306D1D114
:1006700081EA030101F000414FF0000070BD50EA33
:10068000410606BF1046194652EA430619D094EABD
:100690000C0F02D150EA013613D195EA0C0F05D1A7
:1006A00052EA03361CBF104619460AD181EA0301FB
:1006B00001F0004141F0FE4141F470014FF00000B3
:1006C00070BD41F0FE4141F4780170BD70B54FF04E
:1006D000FF0C4CF4E06C1CEA11541DBF1CEA1355CE
:1006E00094EA0C0F95EA0C0F00F0A7F8A4EB0504B0
:1006F00081EA030E52EA03354FEA013100F08880A7
:100700004FEA03334FF0805545EA131343EA12636F
:100710004FEA022245EA111545EA10654FEA002624
:100720000EF000419D4208BF964244F1FD0404F5DD
:10073000407402D25B084FEA3202B61A65EB030539
:100740005B084FEA32024FF480104FF4002CB6EBF6
:10075000020E75EB030E22BFB61A754640EA0C0076
:100760005B084FEA3202B6EB020E75EB030E22BFB6
:10077000B61A754640EA5C005B084FEA3202B6EBF7
:10078000020E75EB030E22BFB61A754640EA9C00B6
:100790005B084FEA3202B6EB020E75EB030E22BF86
:1007A000B61A754640EADC0055EA060E18D04FEA44
:1007B000051545EA16754FEA06164FEAC30343EAE4
:1007C00052734FEAC2025FEA1C1CC0D111F4801FB1
:1007D0000BD141EA00014FF000004FF0004CB6E7AA
:1007E00011F4801F04BF01430020B4F1FD0C88BF49
:1007F000BCF5E06F3FF6AFAEB5EB030C04BFB6EB54
:10080000020C5FEA500C50F1000041EB045170BD46
:100810000EF0004E4EEA113114EB5C04C2BFD4EB73
:100820000C0541EA045170BD41F480114FF0000EF7
:10083000013C90E645EA060E8DE60CEA135594EA73
:100840000C0F08BF95EA0C0F3FF43BAF94EA0C0F76
:100850000AD150EA01347FF434AF95EA0C0F7FF4EB
:1008600025AF104619462CE795EA0C0F06D152EA3F
:1008700003353FF4FDAE1046194622E750EA410623
:1008800018BF52EA43067FF4C5AE50EA41047FF434
:100890000DAF52EA43057FF4EBAE12E780F0004063
:1008A00002E000BF81F0004142001FBF5FEA410348
:1008B00092EA030F7FEA226C7FEA236C6AD04FEA48
:1008C0001262D2EB1363C1BFD2184140484041408D
:1008D000B8BF5B42192B88BF704710F0004F40F43F
:1008E000000020F07F4018BF404211F0004F41F45B
:1008F000000121F07F4118BF494292EA030F3FD027
:10090000A2F1010241FA03FC10EB0C00C3F1200339
:1009100001FA03F100F0004302D5494260EB4000C8
:10092000B0F5000F13D3B0F1807F06D340084FEA33
:10093000310102F10102FE2A51D2B1F1004F40EB28
:10094000C25008BF20F0010040EA03007047490090
:1009500040EB0000013A28BFB0F5000FEDD2B0FA2D
:1009600080FCACF1080CB2EB0C0200FA0CF0AABF50
:1009700000EBC25052421843BCBFD04018437047EE
:1009800092F0000F81F4000106BF80F400000132F4
:10099000013BB5E74FEA41037FEA226C18BF7FEACB
:1009A000236C21D092EA030F04D092F0000F08BF0D
:1009B0000846704790EA010F1CBF0020704712F0F4
:1009C0007F4F04D1400028BF40F00040704712F133
:1009D00000723CBF00F50000704700F0004343F098
:1009E000FE4040F4000070477FEA226216BF0846CE
:1009F0007FEA23630146420206BF5FEA412390EA91
:100A0000010F40F4800070474FF0000304E000BF86
:100A100010F0004348BF40425FEA000C08BF704737
:100A200043F0964301464FF000001CE050EA0102FB
:100A300008BF70474FF000030AE000BF50EA010210
:100A400008BF704711F0004302D5404261EB4101FD
:100A50005FEA010C02BF84460146002043F0B64322
:100A600008BFA3F18053A3F50003BCFA8CF2083A47
:100A7000A3EBC25310DB01FA02FC634400FA02FC50
:100A8000C2F12002BCF1004F20FA02F243EB020057
:100A900008BF20F00100704702F1200201FA02FCB9
:100AA000C2F1200250EA4C0021FA02F243EB0200AC
:100AB00008BF20EADC7070474FF0FF0C1CEAD052F0
:100AC0001EBF1CEAD15392EA0C0F93EA0C0F6FD0B1
:100AD0001A4480EA010C400218BF5FEA41211ED08F
:100AE0004FF0006343EA501043EA5111A0FB01317B
:100AF0000CF00040B1F5000F3EBF490041EAD37150
:100B00005B0040EA010062F17F02FD2A1DD8B3F1CB
:100B1000004F40EBC25008BF20F00100704790F03A
:100B2000000F0CF0004C08BF49024CEA502040EA8C
:100B300051207F3AC2BFD2F1FF0340EAC250704752
:100B400040F400004FF00003013A5DDC12F1190F90
:100B5000DCBF00F000407047C2F10002410021FA02
:100B600002F1C2F1200200FA02FC5FEA310040F11A
:100B7000000053EA4C0308BF20EADC70704792F093
:100B8000000F00F0004C02BF400010F4000F013ACB
:100B9000F9D040EA0C0093F0000F01F0004C02BFC6
:100BA000490011F4000F013BF9D041EA0C018FE735
:100BB0000CEAD15392EA0C0F18BF93EA0C0F0AD03B
:100BC00030F0004C18BF31F0004CD8D180EA010061
:100BD00000F00040704790F0000F17BF90F0004FFA
:100BE000084691F0000F91F0004F14D092EA0C0FDC
:100BF00001D142020FD193EA0C0F03D14B0218BF6F
:100C0000084608D180EA010000F0004040F0FE40B4
:100C100040F40000704740F0FE4040F44000704750
:100C20004FF0FF0C1CEAD0521EBF1CEAD15392EACF
:100C30000C0F93EA0C0F69D0A2EB030280EA010CBF
:100C400049024FEA402037D04FF0805343EA111158
:100C500043EA10130CF000408B4238BF5B0042F1B6
:100C60007D024FF4000C8B4224BF5B1A40EA0C005B
:100C7000B3EB510F24BFA3EB510340EA5C00B3EB8D
:100C8000910F24BFA3EB910340EA9C00B3EBD10F7B
:100C900024BFA3EBD10340EADC001B0118BF5FEACD
:100CA0001C1CE0D1FD2A3FF650AF8B4240EBC250F6
:100CB00008BF20F0010070470CF0004C4CEA5020B7
:100CC0007F32C2BFD2F1FF0340EAC250704740F406
:100CD00000004FF00003013A37E792F0000F00F0F8
:100CE000004C02BF400010F4000F013AF9D040EA76
:100CF0000C0093F0000F01F0004C02BF490011F40A
:100D0000000F013BF9D041EA0C0195E70CEAD15301
:100D100092EA0C0F08D142027FF47DAF93EA0C0FE8
:100D20007FF470AF084676E793EA0C0F04D14B02CC
:100D30003FF44CAF08466EE730F0004C18BF31F07E
:100D4000004CCAD130F000427FF45CAF31F0004378
:100D50007FF43CAF5FE700BF4FEA4002B2F1FE4FC5
:100D60000FD34FF09E03B3EB12620DD94FEA00236D
:100D700043F0004310F0004F23FA02F018BF404246
:100D800070474FF00000704712F1610F01D142022D
:100D900005D110F0004008BF6FF0004070474FF0E1
:100DA0000000704753B94AB9002908BF00281CBF8A
:100DB0004FF0FF314FF0FF3000F00CB8ADF1080CF0
:100DC0006DE904CE00F008F8DDF804E0DDE9022367
:100DD00004B07047704700BF2DE9F04786468C4647
:100DE0000846089E154674461946002B40F0C280FE
:100DF0008542B2FA82F245D94AB1C2F1200300FA23
:100E000002FC2EFA03F3954043EA0C0C94404FEA9F
:100E1000154EA8B2BCFBFEF8230C0EFB18CC08FB49
:100E200000F943EA0C43994528D9EB1808F1FF373C
:100E300004D2994502D9A8F102072B44A3EB090378
:100E4000A4B2B3FBFEFC0EFB1C330CFB00F044EA27
:100E50000344A04214D92C190CF1FF3304D2A04250
:100E600002D9ACF102032C44241A43EA07401EB114
:100E7000D440002334607360BDE8F0874746DDE767
:100E80006346F1E792BB431B01214FEA154EAFB217
:100E9000B3FBFEFC200C0EFB1C330CFB07F840EAF6
:100EA0000343984562D9EB180CF1FF3004D2984502
:100EB00002D9ACF102002B44A3EB0803A4B2B3FBAC
:100EC000FEFC0EFB1C330CFB07F744EA0344A7426D
:100ED0004ED92C190CF1FF3304D2A74202D9ACF140
:100EE00002032C44E41B43EA0040C0E7C2F12003A4
:100EF00020FA03F1954090402EFA03F303434FEAA2
:100F0000154EAFB2B1FBFEFC0EFB1C10190C0CFB16
:100F100007F841EA0041884504FA02F422D9691829
:100F20000CF1FF3004D2884502D9ACF1020029440B
:100F3000A1EB08019BB2B1FBFEFC0EFB1C110CFBEC
:100F400007F743EA01439F420ED9EB180CF1FF313A
:100F500004D29F4202D9ACF102012B44DB1B41EACF
:100F6000004192E76046E3E76146F7E76046A3E7A2
:100F70006346B7E7834206D916B9002108467BE7E6
:100F8000C6E900E0F9E7B3FA83F78FB9834201D3EA
:100F9000724508D8BEEB020460EB030301209C46B7
:100FA0001EB9002168E73846FAE7C6E9004CF8E7C1
:100FB000C7F1200CBB4022FA0CF41C432EFA0CF1B2
:100FC00020FA0CF3B84001434FEA14490EFA07F532
:100FD000B3FBF9F81FFA84FE09FB18300B0C08FB71
:100FE0000EFA43EA00439A4502FA07F240D9E318A1
:100FF00008F1FF3004D29A4502D9A8F10200234437
:10100000A3EB0A0389B2B3FBF9F809FB183308FB19
:101010000EFE41EA03418E452CD9611808F1FF33D9
:1010200004D28E4502D9A8F10203214443EA0040CC
:10103000A0FB0298A1EB0E014145CE46434602D3E8
:1010400006D14D4504D2B9EB020E68EB040301381A
:10105000002EA6D0B5EB0E0261EB030101FA0CFCE9
:1010600022FA07F34CEA0303F940C6E9003198E796
:101070004046C5E74346D9E72DE9F04F93B06E46A9
:1010800004AF88B004AA7A4B5361DFF8E8817A4B49
:1010900093614FF40079A2F81C9042F8108F7748C2
:1010A00000234FF4E65101F0F9FEB546744C20469A
:1010B00008F016FD034698B9216888B004AA714863
:1010C000A2F81C90C2E9050142F8108F6B484FF45A
:1010D000E25101F0E3FEB5463C37BD46BDE8F08F76
:1010E000694D284608F0FCFC034608B92968E4E786
:1010F000204604F09FFF60B1644B7B6302233B6397
:1011000000235E4807F130024FF4825101F0C6FE21
:10111000E2E700214FF4004006F07CFF204604F097
:10112000B7FF82460028E7D107F10F01204604F0FF
:10113000DDFF034628B1564B7B6302233B635346D6
:10114000DFE7F87B534A544988B0002808BF1146AE
:1011500004AA5248A2F81C90C2E9050142F8108F77
:101160000FF20419D9E9008944484FF4E65101F01F
:1011700095FEB546AB683921DB68284698470028BC
:1011800010DA6C4688B004AA454BC2E90530032347
:1011900042F8103F394800234FF4C25101F07EFE5F
:1011A000A54699E7A3683921DB68204698470028BF
:1011B000E7DB07F1200228460D2107F0A1FB07F12C
:1011C000180228460E2107F09BFB07F1100220466B
:1011D000102107F095FB786AFFF7E4F842464B468A
:1011E000FFF774FA8246386A8B46FFF7DBF802464F
:1011F0000B4650465946FEF789FFC7E90001F869DA
:10120000FFF7D0F842464B46FFF760FA8246B869CE
:101210008B46FFF7C7F802460B4650465946FEF785
:1012200075FFCDE902017869FFF7BCF842464B46ED
:10123000FFF74CFA824638698B46FFF7B3F802464F
:101240000B4650465946FEF761FFCDE90001D7E94C
:101250000023144803F010FA00214FF4004006F078
:10126000D9FE87E7AFF300800000000080842E41A4
:101270008BA5000003000001BEA5000098A100009E
:10128000689F0000C4A50000509F0000D8A5000082
:10129000F0A5000086A5000082A500000DA60000B4
:1012A0001FA600003BA600002DE9F04F91B0840777
:1012B000009302F004030293C2F3C20303F101039B
:1012C000DDF86880039205460E46059340F0BE8126
:1012D000041D30B1072909D86FF01B0011B0BDE81B
:1012E000F08F01F00706341DC6F10806009B4FF091
:1012F0000009591E4FF0040A4FF0FF330193CDF857
:1013000010904F46CB4653460DB1009A2260059887
:10131000002800F3EB809A48009A824203D3994850
:101320008242C0F0E380039AA4EB050E92074FEAD5
:101330009E0000F106810F2F00F2B480002D00F016
:10134000088107F140020DEB020C019A0CF8200C09
:101350000CF8102C049801300490EAE07A2860D848
:101360004B280ED847285CD829282FD8252855D0B7
:1013700057D820287DD02338D0F1000B4BEB000B41
:1013800077E0A0F14C0CBCF12E0F4AD8DFE80CF04E
:101390007149494949494949494949494C49494992
:1013A00049494949495A494C4C5A5A5A714C6E4913
:1013B0007149184C18494983804C49494C4980006F
:1013C00000204FF0000B4FF0040A39E0A0F12A0C86
:1013D0005FFA8CFC012202FA0CFC1CEA0E0F48D1C9
:1013E0001CF062502ED11CEA020B42D0013C544446
:1013F000CAF1000C04EA0C04002D61D0A3EB050C2B
:10140000A444B4453FF668AF002868D1042B47D107
:1014100058F8043B2360043404232AE0019A013A7B
:1014200001924FF0000B24E011F8010C6C2834D12C
:1014300011F8023C00206C2B8346C4D14FF0080AFF
:101440005346D3E708F1070828F007080734F8E8FF
:1014500002AB24F0070435B106982044B0423FF6B1
:101460003BAFC4E900AB08344FF0000B4FF0080A63
:10147000534611F8010F002878D0BBF1000F7FF41C
:101480006DAF2528F5D1019B013301934FF0010B7E
:101490004FF0040AECE7584693E700208346A5E79F
:1014A000082B02D06FF0150018E708F1070828F0A4
:1014B0000708F8E80223C4E9002308340823D8E722
:1014C00068B9042B02D108F10408A4E7082BE9D17C
:1014D00008F1070828F0070808F10808EDE7059A61
:1014E000013A059258F8042B00920DE7039A9007F1
:1014F00020D5A4EB050E4FEA9E004FF0010CBEF57F
:10150000007FCFD20F2FCDD8F5B107F140020DEB00
:10151000020EC0B2019A0EF8200C0EF8102CBCF18D
:10152000000F3FF417AF60F07F000EF8200C09F1B8
:1015300001090137C5F10802043406924FF6DA7E3C
:1015400097E74FF0000CDAE7BCF1000F01D001364D
:10155000EFE7029802360028EBD10098CDE906317A
:1015600007F021FFDDE906310644E2E7631BB3F52E
:10157000806F97D245B9A6F10804E018AEE600BF27
:10158000409E000010B20000029A28609B082B7059
:101590009DF81030C2B1EB7085F80290B9F1000FE0
:1015A00005D008A80022C5F1010C97420ED1C5F163
:1015B00001030DF120084FF0000A01930DF1300BEB
:1015C000574512D1601B89E66B70E5E710F8013BC7
:1015D000190608D504EB0C0EB64503F07F033FF661
:1015E0007BAE04F8013B0132DFE7B9F1000F03D015
:1015F00098F90020002A17DB029BD3B11AF80B20C0
:1016000004F8012B0022019B98182044B0423FF6B9
:1016100063AE98F8000004F8010B0099039220468D
:1016200007F0D1FE039A14440AF1010A08F10108F7
:10163000C6E798F8002055F822300093029B45F841
:101640002230009807F0AFFE421CDCE76FF00D007F
:1016500044E600BF2DE9F04F95B000AF0446D7F83F
:1016600078B0BB61CBF3C0037A623B61396251B998
:1016700003784678807800EB830020443B6A9E42E2
:101680001AD8031B3B6294F802A0E3787B615646AC
:10169000BAF1000F02D01BF0010F17D17B695BBBC1
:1016A0007B6A1BB1BA69396A204698473D6A284669
:1016B0005437BD46BDE8F08F451C284607F073FE41
:1016C0003B6A0130013328443B62D7E794F800803D
:1016D0006368FB617B6A4FEA8802FA6004EB880862
:1016E000002B40F001813D6AC1460AEB0803002649
:1016F0004B454ED1D04413E01BF0020FD0D094F8EC
:1017000000804FEA8803FB606368FB617B6A04EB3F
:101710008808002B78D13D6ABAF1000F4ED15646A9
:101720001BF0050F0CBF022301237B627B6908EBD2
:10173000430A0BF002033B62D045B8D018F8021BF5
:1017400018F8013C54F82390AC4B994502D3AC4BAC
:10175000994539D33B69002B43D0F86907F004F968
:1017600000283ED0E9468AB06A46A64B5361FB6921
:10177000C2E906314FF400731384A34B42F8103FC3
:10178000A24800234FF4125101F088FB023DCD46E0
:10179000D2E719F8012B7B6254F8220007F003FE10
:1017A000FA6F7B6A01303AB1D7F8802096423EBF8B
:1017B000FA6F22F816000136054499E71BF004067B
:1017C0001CBF7E6AD044ABE73B6923B1F86907F0E0
:1017D000CBF80028C6D11BF0010F05D17B6AED1AAA
:1017E000AAE73B6A002BA7D0484607F0DCFDFB6F59
:1017F00043B1D7F880309E423FBFFA6F431C22F8B6
:1018000016300136054497E7BAF1000F71D01BF08E
:10181000040671D0D146002607F1400052464146E9
:1018200007F0D1FD7B695B00BB607B69D04408EBAE
:1018300043037B610BF002037B607B6998455DD1BC
:101840002378FB6163781BF0020F06EB03020CBFE9
:101850004FEA590100211BF0010FD2B240F09D80E8
:101860001BF0040F14BF4846002094F802B094F80F
:1018700003803B616270A070E170BA69F9687B6AAD
:1018800020469847051EFFF612AFFB6923703B699F
:10189000637084F80380BA697B6A84F802B04946B1
:1018A00007F140009847B0F10008C0F2A3803B6AFE
:1018B000BA697869A3EB0A01FB68C91ABB68C91A3F
:1018C0007B6A98470028C0F29780A84408EB00057F
:1018D0004FF0000B07F1300AB34560D30021BA691D
:1018E0007B6A08469847E2E64FF0000907F13000AE
:1018F00094E75646D14695E7B14693E718F8021BA0
:101900003E4A18F8015C54F82530934202D33C4A11
:1019100093421CD33B6923B1F86907F025F80028EE
:101920008BD17B68F3B909F1280207F12800024442
:1019300009F1010302F8101C07F1500252FA83F377
:1019400009F102095FFA89F903F8105C75E73B6950
:101950002BB1F86907F008F800287FF46EAF1BF090
:10196000010F09D006F1280207F12801731C56184F
:1019700006F8205CDEB260E71BF0040F3FF45DAFB9
:1019800009F1280207F1280109F1010302EB01091D
:1019900009F8105C5FFA83F94FE7002065E71BF850
:1019A0000A3087F82F3054F82390FB6FFBB133F8DF
:1019B0001B80BA697B6A012107F12F009847002834
:1019C0001ADB0544B8F1000F06D1484607F0EBFCDE
:1019D00000F101081FFA88F8BA697B6A4146484657
:1019E0009847002808DB05440BF1010B74E7D7F892
:1019F0007C80DEE745465AE6054658E6409E0000F4
:101A000010B2000070A600000400000158A1000000
:101A1000014B1860704700BF0000002030B587B050
:101A20000025CDE903010446009503A90548059565
:101A300000F018F9DDE904309842B8BF255407B02A
:101A400030BD00BFB78900002DE9F047058B044683
:101A50002807904611D4022905F0070540F0CD80F3
:101A6000204606F0DFFF78B10138218B042811D819
:101A7000DFE800F0C3106D85950001290CBF45F02B
:101A8000100545F02005258388F31188BFF36F8F7B
:101A9000BDE8F08701F0070AAA4500F0A6800027FC
:101AA000B9463E46A368002B00F0BD8041F0080116
:101AB000218388F31188BFF36F8FA168002900F09C
:101AC000BB800D68002900F0B780D1F80480334650
:101AD00052462046C047002D76D02B6829461D4629
:101AE000F0E701F007035A1F012A1BD8002221F05A
:101AF0000701062B276889B2C4E9002209D13B46B9
:101B000003E0628B013262831B68002BF9D141F044
:101B100002012183204606F085FF00287BD041F09A
:101B2000200177E0042B0AD121F0070189B221833B
:101B3000204606F077FF10B141F020012183218B70
:101B400001F0070AAA4550D00027B946AAE7236941
:101B500021F0070141F00601062DD3F80090218302
:101B60002DD1B9F1000F40D041F00801218388F355
:101B70001188BFF36F8F3A492046C84729E021F00A
:101B80000701236941F0040189B2042DD3F80490C0
:101B90002183E6D000273E464FF0040A82E721F079
:101BA0000701236941F0050189B2052DD3F808909A
:101BB0002183D6D000273E464FF0050A72E7002762
:101BC0003E464FF0060A6DE72B4687E7B9F1000F56
:101BD000D1D14FF02003EFF3118883F31288BFF3C4
:101BE0006F8F238B23F008032383258BEA062ED5E2
:101BF00025F01003238305F007056669218B002E6D
:101C0000BFF66FAF00232768C4E9003321F0070156
:101C100041F001012183218B01F0070AAA454FF011
:101C200000097FF43FAF002F9BD041F008012183D2
:101C300088F31188BFF36F8F002FC7D03D683946F6
:101C400033465246204606F019FF2F46F4E7AB060E
:101C50007FF51AAF25F02003238305F00705FFE683
:101C6000A98A00002DE9F04F9FB0824603911646E5
:101C70001C460025307810B9284600F08BBD731C37
:101C80002528069306D00399D0470028C0F2828504
:101C900001352BE21822002110A807F09FFB737872
:101CA000252B7DD00023701C98469E469C461F46DF
:101CB000014610F8012B2B2A00F0A18000F2988039
:101CC000202A00F09F80232A00F09F802BB19DF8EE
:101CD000483043F040038DF84830B8F1000F05D08C
:101CE0009DF8483043F020038DF84830BEF1000FD6
:101CF00005D09DF8483043F010038DF84830BCF112
:101D0000000F05D09DF8483043F008038DF84830A7
:101D10002FB19DF8483043F004038DF848309DF80A
:101D2000483003F04400442803D16FF386138DF844
:101D300048309DF848302A2A43F080038DF8483017
:101D40007FD19DF8492042F001024B1C8DF84920BB
:101D50001A782E2A9DF849200CBF0121002161F339
:101D600041028DF8492078D15A782A2A6ED0013361
:101D700000224FF00A0C194611F8010BA0F13007B0
:101D8000092F40F2AF809DF848101492C1F3400033
:101D900040EAD2700A4660F341028DF848205CE0C8
:101DA000B21C06928DF84B309DF84930DF0740F1A8
:101DB000548154F8042B0492002A08DA9DF8482034
:101DC00042F004028DF84820049A524204925807C7
:101DD00040F14B8154F8047B002F80F24A819DF83A
:101DE00049306FF341038DF849304FF0FF3740E140
:101DF0002D2A0DD0302A7FF469AF012358E74FF028
:101E0000010C55E74FF0010E52E74FF001084FE784
:101E100001274DE70EFB0272303A0346184610F8D0
:101E2000017BA7F1300CBCF1090FF3D999428FD097
:101E30009DF848101392D20F62F341018DF84810BB
:101E400086E70B4600224FF00A0EE7E79DF849208F
:101E500042F004028DF8492002331A786C2A61D0CE
:101E600045D8682A4BD06A2A65D04C2A6BD013F823
:101E7000012B0693782A8DF84B2000F2AD806D2A55
:101E80006ED8692A00F2A880572A00F28880412A79
:101E900004D0A2F14503022B00F29E809DF84A3047
:101EA00002F0DF020421A2F1410861F30203D8F13C
:101EB00000029DF849108DF84A3042EB080262F3A7
:101EC000C7110A068DF84910CBB200F1C48003F0A7
:101ED0007802182A40F0AE806FF3C6038DF84930BF
:101EE00000239DE00CFB0202303A0B4643E7742AC4
:101EF00025D07A2ABBD19DF8492006210CE05A78DA
:101F0000682A9DF8492006D1012161F3C6028DF8A7
:101F100049200233ABE7022161F3C6028DF8492064
:101F20000133A4E75A786C2A9DF8492001D1042195
:101F3000EBE70321F0E79DF849200521ECE79DF848
:101F400049200721E8E7BDF8482022F4F04222F0BA
:101F5000020242F4804242F00202ADF84820DFE77C
:101F60006E3AD3B201229A4040F282431A429DF85F
:101F7000493038D112F0240F60D1D1072CD59DF80B
:101F80004A2003F07803A3F1400C032161F302021D
:101F9000DCF100038DF84A2043EB0C0340E0A2F192
:101FA0005801C9B2012000FA01F111F4624F7FF427
:101FB00075AF40F6010319429DF8493019D111F46B
:101FC000043F09D09DF84A2060F3020203F0780331
:101FD000402B8DF84A2083D19DF8483043F001030F
:101FE0008DF848307CE79DF84A20022161F3020217
:101FF000ECE79DF84A10022003F0780360F3020139
:10200000402B8DF84A1002BF9DF8481041F00101A5
:102010008DF84810632A7FF463AF003B18BF01239B
:102020009DF84820C2F340010B4363F341028DF851
:102030004820B9E613F0380FCED151E79DF84A2079
:10204000032113F0780F61F302028DF84A2014BFC8
:1020500001230023E4E70123E2E79DF94820002A59
:10206000B4BF139A4FF0FF32B0E699077FF5BDAECB
:10207000149F9DF849100023CDE913339DF84A3091
:1020800003F00702042A07D18A0705D49DF94920E5
:10209000002AACBF06270D2703F00703012BC1F36D
:1020A000C30133D1CB1E042B04D8DFE803F0214653
:1020B00046212100236801294FEAE372CDE910325D
:1020C0001CD19DF94030DA17CDE9103204349DF867
:1020D000483007939B0750D0069B039932465046E1
:1020E00006F013FE0028C0F255830544069EC1E5A4
:1020F00054F8043BDA17CDE91032E8E70229E5D1BC
:102100001AB243F3C033CDE91023DFE7022B24D109
:10211000CB1E042B04D8DFE803F0181010181800A9
:10212000012954F8043B4FF0000214D00229CDE9F4
:102130001032CCD19BB21093C9E7073424F00704C6
:10214000F4E80223CDE91023C1E754F8043B1093CF
:1021500000231193BBE7DBB2CDE7042B08D1073492
:1021600024F00704D4E900230834CDE91023AEE7B6
:10217000032BACD154F8043BDDE79DF84BB0BBF129
:10218000780FB3D8BBF1570F49D8BBF1250F00F03A
:102190009180BBF1240FA9D9BBF1410F03D0ABF162
:1021A0004502022AA2D8DDE91012002AC0F23681C7
:1021B000079B180700F13581C3F300194FEA49194D
:1021C000C2F30A50C2F31302002840F02D8151EAF5
:1021D000020614BF01260026D20242EA5152C90269
:1021E000BBF1460F40EA010E42EAE07C08BF4FF027
:1021F000660B5EEA0C0CCDE90C1200F09981002E02
:1022000040F044810D9A42F00042A0F2FE380D9257
:102210000020DDE90C1206464FF0050C50E1ABF151
:102220005802202A3FF662AF01A050F822F000BF0A
:10223000BB230000ED200000ED200000ED20000099
:10224000ED200000ED200000ED200000ED2000005A
:10225000ED200000A7210000ED2000003F2300003A
:1022600053230000A7210000A7210000A7210000A0
:10227000ED20000053230000ED200000ED200000C1
:10228000ED200000ED200000F5230000BB2300003E
:10229000C1230000ED200000ED200000BB22000063
:1022A000ED200000BB230000ED200000ED20000029
:1022B000BB23000003995846E6E4002F109E3ADB4A
:1022C0003946304607F076F83718002E3FF40EAF47
:1022D0004FF000099DF84A3013F01002059200F00B
:1022E0004E82023013F04003DDF84C80089318BF93
:1022F000149BCDF81C80404418BFC018049B002BD1
:1023000040F358829DF848201B1A04935307C2F3E8
:10231000800B00F14F82500640F13F82B9F1000F6F
:1023200007D003994846D0470028C0F233820135D0
:10233000D946302232E2304607F035F8C4E7109B28
:102340008DF85C304FF000090DF15D0717AE0120EC
:10235000C0E7079B1E0758BFC3F30019DDE9102330
:1023600054BF4FEA49194FF02B09002B06DA5242AD
:1023700063EB4303CDE910234FF02D090DF17503F5
:102380000093DDE9100117AB12AA06F078FC0646AF
:10239000002F0CDB9DF848200DF175039B1B6FF39C
:1023A00086129F428DF8482001D9FB1A1393002E04
:1023B0003FF49CAE0DF1750756E04FF00009DDE7E4
:1023C0001098002800F0D6810DF17503009312AA31
:1023D00017AB002106F053FCBDF84A3003F0EF03C1
:1023E00043F4F04343F010030646ADF84A304FF093
:1023F0000009CDE7109B07293FF678AEDFE801F032
:102400000C04060C08080C0C1D706FE61D806DE6B0
:10241000EA17C3E9005269E61D6067E64FF02D092F
:10242000CEE64FF02B09CBE640F2FF76B0422AD140
:102430000A43ABF141031ED11A2B35BF492369234F
:102440004E216E2134BF462266228DF85C309DF805
:1024500048308DF85D106FF386138DF85E208DF88F
:1024600048300DF15F0717AEB81BB9F1000F3FF40C
:1024700031AF01302EE7192B8BBF6E234E23612124
:1024800041211A46E1E70026A6E6013849185241E3
:10249000002AFADACDE90C12B4E6490841EAC27121
:1024A0005208B2F1333F404608F10108F5D20CFB67
:1024B00002FEA1FB0C1200F102087244013E012051
:1024C00018F1020FE9DB08B1CDE90C12B8F1000FE9
:1024D000DDE90C212FDCC8F1040008F11C08A0F193
:1024E000200CC24021FA00F301FA08F80BF0DF00DB
:1024F00042EA080221FA0CFC472842EA0C0208933F
:102500003AD1F31C01DBB7422BDAABF10203002F07
:102510005FFA83FB7FDD9DF84800800607F1FF37F7
:1025200079D43B1E18BF0123059307F101082DE064
:102530004FF000086CE6023241F100010CA8CDE931
:102540000C2106F06DFBDDE90C2108F1FF380136A6
:1025500092184941002908F1FF38F9DACDE90C2138
:10256000B4E79DF848309906A7EB060751D43B1E07
:1025700018BF0123059304E00023BBF1660F059308
:10258000D3D117EB06084FF0660B46D4B8F1100F05
:10259000A8BF4FF0100810200B904FF000610020F2
:1025A000CDE90E01DDE90E03B8F1000F38D108992D
:1025B000121841EB0301B1F1805F3FD2CDE90C214C
:1025C000079BBBF1660F03F0200240F0B280002EA3
:1025D0003FDC30218DF85C10002A63D1002F40F3DE
:1025E000A8812E228DF85D2086B17242BA42A8BF22
:1025F0003A469DF84A101392002AA7EB0207D4BF6F
:102600000022012262F345118DF84A100DF15E0897
:1026100037E00023AEE7002386E74FF00008BAE773
:10262000400840EAC3705B08CDE90E030EA809928A
:1026300008F1FF3806F0F4FA099AB3E7520842EAC3
:10264000C1720CA84908CDE90C21013606F0E8FA60
:10265000B6E70DF15C080B99002909DD0BA90CA860
:10266000079206F0F5FA013E08F8010B079AF2D13D
:1026700013969AB9002F40F35A812E2108F8011BB6
:102680000026002F17DD0B9A002A14DD0BA90CA8D9
:1026900006F0DEFA013F08F8010BF2E72E2208F8F7
:1026A000012BEDE72E228DF85D20002EAED0002FFD
:1026B0009BDC0DF15E08059B002B4ED1149747461D
:1026C0000BF0DF02452A23D1002EBABF76422D231C
:1026D0002B23632EC8BF64217B70D1BFBA1CB6FB0D
:1026E000F1F3FA1C03F13000C8BF01FB13664FF091
:1026F0000A01C8BFB87087F800B0B6FBF1F31746FF
:1027000003F1300001FB1363303307F8020B537001
:10271000139B002B2CDC149B002BD4BF0023012324
:102720009DF84A2063F3861200238DF84A203B70FF
:1027300099E60BA90CA8079206F08AFA079A8DF879
:102740005C00302818BF06F1FF3612B9002F40F3A5
:10275000F0802E228DF85D2058E7474608F1FF38BB
:1027600017F8012C302AF8D02E2A08BF4746A7E7D1
:102770000123D5E7704F81467E1F0520AAE51A0781
:1027800048BF0130AEE5104609920399D0470028B2
:10279000099A05DA1FB0BDE8F08F2022DDF810B0ED
:1027A000594600290BF1FF3BEDDC049BCDF810B03E
:1027B0002B445D1AB9F1000F05D003994846D04764
:1027C0000028E7DB0135089B002B75D09DF94930C7
:1027D000002B28DBB3469BF80000A0F13003092B47
:1027E000D9460BF1010B3FD99DF84A30AE1B990633
:1027F0004E4407D44246002A08F1FF3839DC079BD3
:1028000033449E1A99F800002E280AD10399D04724
:102810000028BFDBB8F1000F06F101062FDC09F13B
:1028200001094D4635E0B14699F800007028C846C8
:1028300009F1010913D1AE1B149D46443544AB1B6D
:10284000002B31DC03993B464246504606F05DFAC8
:1028500000289FDB3044049E0546064462E003994D
:10286000D0470028E0DA95E70399D0470028B2DA8C
:1028700090E703993020D0470028BBDA8AE7039914
:102880003020D04708F1FF38C2E70399D04700282D
:1028900080DB2878A0F13003092BA84605F101055B
:1028A000F3D9A6EB0906C7E703993020D0470028E3
:1028B000FFF670AF0136C2E79DF84A30DA0601D460
:1028C0001B0706D503993020D0470028FFF662AFDA
:1028D0000135059B3BB103999DF84B00D04700287B
:1028E000FFF658AF0135A84406E003993020D047E1
:1028F0000028FFF64FAF0135A8EB0503002BF4DCF1
:1029000003993B463246504606F0FFF90028FFF691
:1029100041AF28449FE703992020D0470028FFF6C5
:1029200039AF0135731B002BF5DCFFF7DFBB164613
:10293000C1E60DF15D08BEE629A7000008B5044612
:102940004FF02002EFF3118382F31288BFF36F8FF1
:1029500003F01CF8204601F0D3FE034806F03EF8D1
:1029600001F038F8FCE700BF2AA7000003F016BC0E
:102970002DE9F047DFF85880044607464FF001097B
:1029800014B93846BDE8F08794FAA4F5B5FA85F590
:1029900009FA05F32E0108EB05156FEA030A24EA8C
:1029A00003042B7B002BEBD058F806301B694BB986
:1029B0004644042273682846196807EA0A0700F0AB
:1029C00059FADDE7284698470028D9D1F0E700BF3B
:1029D000E0A1000030B51049104889B0002207F08E
:1029E00001FA0F4D0F4900220023CDE906230024F0
:1029F0000E23CDE90334CDE901440B4B00944FF491
:102A00004072284604F09EFE0849284604F02CFE39
:102A1000204609B030BD00BF312A0000D806002092
:102A20002002002080160020212D000053A7000066
:102A3000014804F0E3BF00BF0C0200202DE9F0477D
:102A400080461F480F4606F0E0FB0646002830D0BF
:102A500000252846BDE8F087237B73B12368DB6837
:102A60000BB12046984723681B69D3B963680422D9
:102A70001968204600F0FEF9013610344C45EBD3BE
:102A8000B8F1000FE5D0002DE2D02846FFF770FF27
:102A90000546002FF7D000214FF4A47005F0BAFAD4
:102AA000F1E7204698470028E0D00AFA06F31D43D4
:102AB000E2E7044CDFF8109005464FF0010ADDE72D
:102AC000C0080020E0A1000000A20000014B53F864
:102AD000200070475CA2000008B5034608462BB1F1
:102AE000044A136000F078FC002008BD6FF0150068
:102AF000FBE700BF0400002010B5044C237813B995
:102B0000034804F07BFF0123237010BD281200202E
:102B10000C02002010B50446084806F076FB5CB1B4
:102B2000BFF35B8F064B53E8001F013943E80012E7
:102B3000002AF8D1BFF35B8F10BD00BFB80800209A
:102B4000BC0800200020064BBFF35B8F014653E812
:102B5000000F43E80012002AF9D1BFF35B8F7047E2
:102B6000B808002070B5FFF7EDFF084C084E054689
:102B7000B44200D370BD63685B792BB123685B6896
:102B800013B12946204698471034F1E7E0A1000030
:102B900000A2000010B5044C0449204606F0C6F916
:102BA000034B1C6010BD00BF6C01002048A2000058
:102BB000B0080020084A094808B500231370084AE5
:102BC0001360084A4FF400411360FFF785FFBDE82A
:102BD0000840FFF7DFBF00BF291200200792000066
:102BE000B8080020BC08002001460022014800234C
:102BF00006F0BDB96C010020014806F056BA00BFCE
:102C00006C010020024B0146186806F0A0BA00BF14
:102C1000B0080020014806F0D6BA00BF6C010020C1
:102C200070B5284B187800284BD0FFF7E5FF054614
:102C300090B1BFF35B8F244B53E8001F013943E889
:102C40000012002AF8D1BFF35B8F204C204EB44213
:102C50002DD32846FFF7D6FF1E4B1F4C1B68002BB9
:102C600019DD07F0B9F84FF47A72A0FB020302FBFA
:102C70000131C30BD4E9002043EA41439B1A4FEAD8
:102C8000D13140F2E93261EB0001934271F1000170
:102C900001D3FFF767FFD4E9003213F57A7342F1ED
:102CA0000002C4E90032BDE87040FFF7B3BF6368BB
:102CB0005B7923B1236829461B6820469847103466
:102CC000C5E770BD28120020BC080020E0A100006C
:102CD00000A20000B8080020D006002070B50D4DFD
:102CE000297861B90120FFF7A9FE0B4C0B4EB442C5
:102CF00006D3FFF795FF0028FBD101232B7070BD91
:102D000063685B791BB1236820469B689847103441
:102D1000EDE700BF29120020E0A1000000A20000A2
:102D200000212DE9F0470846FFF788FE044648B326
:102D300040F267684FF0000905F086F91A4B1860F9
:102D400030B11A4B1B68092B02DD194804F056FEFE
:102D5000184FDFF85CA0002544B12046FFF708FEBD
:102D6000044618B94FF0FF384FF0FF39FFF758FF0E
:102D7000064628B9B5B942464B46504604F060FEB7
:102D80003546E9E74FF0FF384FF0FF39D4E72B68BD
:102D90009B691BB100221146284698471035BD4259
:102DA000F5D3E8E7044DFAE7B4080020BC0800209A
:102DB0000C02002000A20000E0A1000013B518489A
:102DC00006F023FA174B1B787BB14FF02003EFF38B
:102DD000118483F31288BFF36F8FFFF721FF84F311
:102DE0001188BFF36F8F02B010BD0F4B1B68002B13
:102DF000F9D050B900220023CDE900230B484FF44D
:102E00000042002305F056FBEDE70A28EBD1074806
:102E100006F0F4FF064802B0BDE8104004F0EEBD35
:102E2000BC08002029120020B4080020D806002089
:102E30000C02002010B5064B1B680446984721463B
:102E4000A060044806F011F9BDE81040FFF7B6BFD6
:102E5000040000206C010020044A054B9B1AB1EBD2
:102E6000D30F34BF52F831000020704738A1000062
:102E7000E0A10000084BC31A10B41B1144680133D1
:102E8000237143689A7143681960436801225A713B
:102E900010BCFFF731BE00BFE0A100002DE9F04FEC
:102EA0008FB004AFC1F34A28B8600D4691467B60ED
:102EB0000C0DB8F1000F63D0002607F114034FF09A
:102EC000040B4FF00A0AC7F80C80C7E907667E6258
:102ED0000193CDF808B0CDF800A007F11C03F96804
:102EE00032464846FEF7B6FBB0F5006F03461CD3EA
:102EF0006C468AB0D9F8041004AB2648C3E9050132
:102F000040F2FF71D9611A464FF400711984224BC7
:102F100042F8103F214833464FF41251FFF7BEFFED
:102F2000A5462C37BD46BDE8F08FC0F30A0804F172
:102F30001700184420F0070080083B60FFF754FE9C
:102F400068F35325044690B13B68154AC7E9083633
:102F500000F1100107F11403F961CDE900A3CDF8E8
:102F600008B0F96807F11C034846FEF773FB68F3E5
:102F700053257B68B9682A46204606F07CF9D0E7DD
:102F800004F1170020F007008008FFF72DFE04462B
:102F9000EDE700BF68A700000400000180A1000069
:102FA0004B9200002DE9F04F87B0DDE91269DDE9B1
:102FB000105A04460F4693469846A6B31021CDF802
:102FC0000090334652460020CDF81490FEF76CF97D
:102FD000014605F117000844144B039104F007045F
:102FE0000BF0070BE40020F0070003EA412344EA5A
:102FF0008B1480081C43FFF7F7FD44EA055405468F
:1030000040B13EB10399CDF800903346524610309E
:10301000FEF74AF9434622463946284607B0BDE83E
:10302000F04F06F028B93146D3E700BF00FE0F008D
:103030000EB403B503AB014653F8042B04480193C7
:1030400006F03FF902B05DF804EB03B0704700BF33
:10305000EB920000CA0605D48B064CBF0249034917
:10306000FFF7E6BF704700BFA8A70000A7A70000B2
:103070002DE9F04F89B09B469DF848300493DDE977
:1030800013930593049B0692DDE9157604460D46DD
:10309000002B00F0878006F00803079306F0D3F8B2
:1030A00006F0020A024600284BD086492046FFF768
:1030B000BFFF8046BAF1000F08D016F0440F42D18E
:1030C00081492A462046FFF7B3FF804406F00103FA
:1030D0005BB17E4B049A7E4953F822207D4B2046FB
:1030E000002A08BF1A46FFF7A3FF06F00803002BCB
:1030F00055D0794B049A794953F822202046FFF79E
:1031000097FF0546069B2BB175491A462046FFF7E7
:103110008FFF0544BBF1000F05D072495A46204687
:10312000FFF786FF05444544B9F1000F49D1002F50
:103130004FD1F30700F1C08031462046FFF78AFFE8
:10314000B4E08046B6E7684B18680028BDD0674BEE
:103150004FF47A7E1B68B5FBF3F54FF46162B5FB63
:10316000F0F300FB1355B3FBF2FA0EFB05F502FB7F
:103170001A323C21B5FBF0FCB2FBF1F300FB1C550D
:1031800001FB13220EFB05F50092B5FBF0F5584943
:10319000CDE901C552462046FFF74AFF95E706F004
:1031A0000805AFE7BBF1010F06D1B9F1000F64D1FB
:1031B000002F7BD000250CE0B9F1000FF8D04D486E
:1031C0005CE04D484D494B46224605F09CFB002FE4
:1031D00068D0DFF82C91DFF82CA1102F3146204663
:1031E000B84628BF4FF01008FFF734FF4FF0000B30
:1031F0005D4545DC059B51461A782046FFF718FFD0
:103200004FF0010B1BF0070F03D149462046FFF793
:103210000FFFD8453BD9059B514613F80B2020469C
:10322000FFF706FF0BF1010BBBF1100FEAD1364996
:1032300020464FF0000BFFF7FBFE5A46059B9A5CB9
:10324000A2F120015F2928BF2E2230492046FFF736
:10325000EFFE0BF1010BBBF1100F1DD01BF0070FA0
:1032600003D149462046FFF7E3FED8455A46E5D844
:1032700049462046FFF7DCFEEBE71F48049DA1E727
:1032800049462046FFF7D4FE0BF1010BB0E7204979
:103290002046FFF7CDFEC5E7059BB7EB0807434483
:1032A00005939AD1049B002B7FF443AF204609B0CD
:1032B000BDE8F04F06F00CB8064A05492046FFF776
:1032C000B7FE39E7AFA70000B3A700006CA200006B
:1032D00063AD0000AAA7000080A20000D8A70000EC
:1032E000DEA70000E2A70000C8080020C4080020F4
:1032F000BCA7000021930000EB920000C3920000E5
:10330000EFA70000E7A70000F1A70000F3A7000067
:10331000EDA700002DE9F0410F884B688E6886B05C
:1033200005460C469046C7F382175BB1134A9B1AB9
:1033300043F3CF0100291FDB2078C0F3C200FFF761
:103340008BFD03462146608851F8102B0097C2F38D
:103350004A22002A01EB0204C0F30B1008BF00212F
:10336000CDE90308CDE90114002231462846FFF7D4
:103370007FFE06B0BDE8F0810023E3E738A100003E
:1033800073B542F20F738B4228BF0B4605680F4A94
:1033900004460521684605F02EFB63680C495B680E
:1033A00006460B22284605F07FFF636832466946D1
:1033B00028465B6805F078FF636806495B681B2256
:1033C000284605F071FF02B070BD00BFEAAE0000F4
:1033D00012A80000F6A70000074A0021012390422E
:1033E00006D8064A01B901231360054B18607047DF
:1033F00040085B000121F2E740420F00C4080020B2
:10340000C8080020014B01221A7070472A120020C0
:10341000014B002019607047E0080020024B034870
:1034200001221A7005F054BF2B120020B0A2000038
:103430000148FFF7A5BF00BFB0A2000010B5064BC2
:1034400018680C46FFF742FB21460346BDE81040D2
:1034500002480F22184700BFE0080020B0A2000079
:1034600010B9074B18707047064B1B781BB141F21F
:10347000883006F0B3BCA420002104F0CBBD00BF0F
:103480002A1200202B1200202DE9F843DFF8749057
:103490001D4F80460E46042499F8005095B903F05C
:1034A00001FF28463246414603F0AAFE054603F0D6
:1034B00003FFE5B101233B7099F8003073B9304642
:1034C000BDE8F88332464146002003F099FE0546E8
:1034D000EFE72046FFF7C4FF651E2C46002003F0EF
:1034E000D7FE0028EBD03B78002BF2D1E7E73B7802
:1034F000002BE4D0013C2046FFF7B2FF3B78002BC5
:10350000CAD1DCE72B1200202A120020014B002038
:1035100019607047F8080020024B034801221A7016
:1035200005F0D6BE3D120020DCA200000148FFF7E6
:1035300027BF00BFDCA2000010B5064B18680C4680
:10354000FFF7C4FA21460346BDE8104002480F22A7
:10355000184700BFF8080020DCA20000F8B5074FAC
:103560000D4604464618B44201D12846F8BD14F869
:10357000011BBB6801485B689847F4E7089F00009F
:103580002DE9F84305464FF02003EFF3118683F34E
:103590001288BFF36F8F0E4B0E4F1C68DFF8388018
:1035A0004FF00C092CB986F31188BFF36F8FBDE87B
:1035B000F883D4E90123002D18BF13462BB198F8E6
:1035C000102009FB02F2B85C98472468EAE700BFC4
:1035D00014090020080900201810002070B5194BAC
:1035E0001C7CBFF35B8F04F01F0301229A40164B33
:1035F000610903EB8103D04353E8001F01EA000592
:1036000043E80056002EF7D1BFF35B8F0A4213D078
:103610000E4B0F4D8BB10C236343EA18E85C5178D5
:1036200005F0F6FE0020FFF7ABFF0C235C432A19E0
:1036300000232B51C2E9013370BD83F31188BFF31E
:103640006F8FEFE7181000201C0900201194000074
:10365000080900202DE9F041354B07461D7C4FF04D
:103660002003EFF3118883F31288BFF36F8F0C24CC
:10367000304B314E6C431A19195D00294CD007CAE2
:1036800006EB040C8CE8070000221A5588F3118819
:10369000BFF36F8F0C236B43F218F05C002839D016
:1036A0007B1C10D0D2F808C0244C254A4FF40040AF
:1036B0000021ECFB004100232046FDF773FB0121B4
:1036C000381A02F027F904F0EBFB0120FFF758FF4E
:1036D000BFF35B8F1B4B6A0903EB820305F01F01ED
:1036E00001228A4053E8000F104343E800010029FB
:1036F000F8D1BFF35B8F144B3BB10C2303FB05F0F8
:103700003318305C597805F077FEFFF767FF04F057
:10371000DBFB0120BDE8F0810146284600F016F8E9
:103720000028B3D007C8344484E80700AEE700BFE0
:1037300018100020FC080020080900203F420F005C
:1037400040420F001C090020F99300002DE9F04FC2
:1037500085B00E4603A900F043F81E4B039DD3F835
:1037600000A0DFF87480431E1BB203EB4303044642
:1037700005EB83054FF400474FF0000B24B9A14639
:10378000484605B0BDE8F08F6868144AC4465946FB
:10379000E0FB07C100236046FDF704FB0190A86829
:1037A0000E4AC4465946E0FB07C100236046FDF7B8
:1037B000F9FABAF1FF3FA94601D0824505D9731C39
:1037C000DED0019B1844B042DAD9013CA4B20C3DD2
:1037D000D4E700BF080000203F420F0040420F0026
:1037E00008B9024B0B600020704700BFECA200003C
:1037F000014804F0DDBE00BFECA2000038B504466D
:1038000018B90F4B0F485B6898476168B1F5683F7E
:103810000FD0B1F5680F0CD00B4DA94209D011F4AF
:10382000686107D00948214606F08DF9002323601E
:10383000656038BD2068142205F0D0FDF8E700BFB0
:10384000FC0000206BA800002C5F5CA9200E00206B
:1038500008B520B34368B3F5683F10D1012203686F
:10386000BFF35B8F53E8001F002903D143E800201A
:103870000028F7D1BFF35B8F0DD1002008BD094AA6
:1038800093420AD000684FF0FF324FF0FF3303F04D
:10389000FDFF0028F1D00448F0E70448EEE76FF49C
:1038A000E040EBE72C5F5CA9E98FFFFFEA8FFFFFA9
:1038B00008B5D8B14368B3F5683F10D1002203685A
:1038C000BFF35B8F53E8001F012903D143E80020B9
:1038D0000028F7D1BFF35B8F0BD1002008BD074A4A
:1038E000934208D0006804F04BF8F6E76FF4E0402C
:1038F000F4E70348F2E70348F0E700BF2C5F5CA958
:10390000E98FFFFFEA8FFFFF10B5044618B91D4B82
:103910001D485B6898476368B3F5683F2FD0B3F5DF
:10392000680F2CD0194A934219D1236803BB184859
:103930004FF0FF324FF0FF33214603F049FE08B944
:1039400023681BB90F4B13485B6898472068142203
:10395000002105F043FD4FF46863636008E0B3F5B0
:10396000683F0DD83A2B03D040F6BA629342DED1BD
:10397000206806F029F9636843F03A03636010BDDC
:10398000054AF3E7FC0000206BA800002C5F5CA94F
:10399000200E002091A800003A00003A08B5064920
:1039A00006484023142206F0C0F8BDE80840044948
:1039B000044804F06FBE00BF20090020200E002044
:1039C000F4A2000008A30000014910220A60704719
:1039D00010ED00E072B6404080F31188BFF36F8FA6
:1039E000BFF34F8F30BF62B6BFF36F8F704700BF1A
:1039F00072B6494081F31188BFF34F8F20BF80F327
:103A0000118862B6704700BF2DE9F047814600AFCC
:103A10000C4600294CD06E468AB0D1E90012A3684A
:103A20006D462748A8464FF0050AC5E90501C5E9D6
:103A3000072348F810AF2348424600234FF4215192
:103A4000FFF72CFAB546D4E903126369AD461E4868
:103A5000C5F810A0C5E90501C5E9072319480023E9
:103A600042464FF42151FFF719FAB54688B0E36991
:103A70006D46164AA8464FF0030AC5E9052348F8E3
:103A800010AF1048002342464FF4C251FFF706FA28
:103A9000B546A369AD460E4AC5F810A0C5E9052391
:103AA0000848002342464FF4C251FFF7F7F9B546E4
:103AB0002146484603F006FCBD46BDE8F08700BF3E
:103AC000BEA80000B8A10000EDA800001CA90000DD
:103AD0002BA9000040B2002807DB044A410901235A
:103AE00000F01F00834042F82130704700E100E001
:103AF00040B200280CDB4309064900F01F002033C8
:103B00000122824041F82320BFF34F8FBFF36F8F14
:103B1000704700BF00E100E0054B420900F01F00C4
:103B200053F82220012303FA00F01040704700BF31
:103B300000E100E040B20028A8BF00F1604001F1C0
:103B40000101B8BF064B4FEA4111ACBF00F561401F
:103B500000F00F00C9B2B4BF195480F800137047C9
:103B600014ED00E030BFFFF7FDBF00BF0B4A08B502
:103B70000B4B22F07F029A60BFF34F8FBFF36F8F22
:103B8000D3F8882022F47002C3F8882003F056FC92
:103B900004F0C4FA00F0DCFB03F098FC0000000025
:103BA00000ED00E00A4A0B4993680968C3F8AC10BD
:103BB0000949C3F8A8004B6843F080534B600023C9
:103BC00083F31188BFF36F8F9368D3F8AC0070470D
:103BD00018100020C4A4000000ED00E013498A681A
:103BE0004FF030001044EFF3098C80E8F01F2020E4
:103BF00080F31288BFF36F8F0D4F4FF000668A6914
:103C00008A603E60D2F8A8000023C2F8A83080F392
:103C1000118804B5104600F03DFCBDE8044002F1F7
:103C2000300090E8F01F8CF30988704718100020CE
:103C300004ED00E01EF0040F0CBFEFF30880EFF37B
:103C40000980816911F8021C0229FFD001B505F035
:103C50007AFB01BD42F8203C009B42F81C3C0A491B
:103C6000019B42F8183C029B42F8143C21F00101F0
:103C70004FF0807342F8043C42F8081C0023203ABD
:103C80000265C0F8A8307047118A00000A4A03464E
:103C9000906878B113F1160FD0F8980005D0A0F114
:103CA00040029A4205D8834203D2814228BF0020B5
:103CB00070470020704700BF1810002008B5094B5E
:103CC0000D461446986000F0E5FB204685F3098810
:103CD000002163B681F31188BFF36F8F00220023A8
:103CE00004F096FE1810002001B572B60B4A506918
:103CF00000281EBF0021516105F057FF62B6EFF3A7
:103D00000580A0F110004FEAC0000549014409C92F
:103D10009847BDE8014003490847000018100020FB
:103D2000809F0000293D0000044B996898698842F3
:103D300003D003494FF080520A60704718100020EA
:103D400004ED00E02DE9F04186B0064600AF0D46D7
:103D5000474B7B6102244FF4825146483C6107F196
:103D6000100205F0FFFA444B9B6AD9046DD5434B12
:103D70004048C7E9044307F110024FF4825105F0AF
:103D8000F1FA17203C4B9B6A1A050BD53C4B7B6123
:103D9000022338483B6107F110024FF4825105F0CD
:103DA000E1FA1820344CA36A9B0523D5E846354B2D
:103DB0007B6102232F483B6107F110024FF48251CF
:103DC00005F0D0FAA36BA26A100412D588B06A4637
:103DD0002D492848C2E90513032342F8103F4FF448
:103DE000C25105F0BFFAC5461EB1A36A23F40043D1
:103DF000A3621920204B9B6A59050BD5234B7B618D
:103E000002231C483B6107F110024FF4825105F078
:103E1000A9FA1A20184B9A6AD20518D51C4B7B6157
:103E2000022314483B6107F110024FF4825105F060
:103E300099FA1B20104A936A43F47F439362183720
:103E400000232B70BD46BDE8F08116209AE79B6ADF
:103E50009B04EFD50F4B7B61022306483B6107F1C2
:103E600010024FF4825105F07DFA1C20E2E700BFFA
:103E700059A90000B8A1000000ED00E06FA9000002
:103E800080A9000093A90000ACA90000C1A900000E
:103E9000DCA90000F4A9000010B586B0364B374805
:103EA000059304AA02244FF48251049405F05AFAAF
:103EB000334B9B6A9A015DD5324B304804AA4FF4CC
:103EC0008251CDE9044305F04DFA1E202C4B9B6A2C
:103ED000DB010AD52C4B2948059304AA02234FF491
:103EE0008251049305F03EFA1F20254B9B6A1C0368
:103EF0000AD5264B2148059304AA02234FF4825188
:103F0000049305F02FFA21201D4B9B6A59030AD513
:103F10001F4B1A48059304AA02234FF482510493BD
:103F200005F020FA2220164B9B6A9A030AD5194BFA
:103F30001248059304AA02234FF48251049305F01A
:103F400011FA23200E4B9B6ADB030AD5124B0B4858
:103F5000059304AA02234FF48251049305F002FA58
:103F60002420074A936A6FEA03436FEA134393627C
:103F700006B010BD1D20A9E723AA0000B8A10000CB
:103F800000ED00E03BAA00004EAA000068AA000075
:103F900086AA0000ABAA0000C5AA00002DE9F047E0
:103FA00086B0814600AF8A469046514B7B61022421
:103FB00050483C6107F110024FF4825105F0D2F9EC
:103FC0004D4B9B6ADE0645D54C4B4A48C7E9044336
:103FD00007F110024FF48251112405F0C3F9464B4A
:103FE0009B6A1D070BD5464B7B61022341483B6111
:103FF00007F110024FF48251122405F0B3F93E4D3F
:10400000AB6A980728D56C463E4B7B6102233B6127
:104010004FF48251374807F1100205F0A3F96E6B97
:10402000AB6A190660D588B06A46374B3148C2E999
:104030000536032342F8103F4FF4C25105F092F9C0
:10404000A546BAF1000F03D0AB6A23F08003AB6240
:10405000132403E01024C2E76FF01506264B9B6A79
:10406000DA070BD5294B7B61022322483B6107F11C
:1040700010024FF48251142405F074F91E4B9B6A10
:104080009B060BD5224B7B6102231A483B6107F14B
:1040900010024FF48251152405F064F9164B9A6A08
:1040A000D50602D49A6A90070AD55B68190507D528
:1040B00049463046FFF7EAFD10B180F30988022433
:1040C0000D4B9A6A920642BF5A6A22F400525A6213
:1040D0009A6A42F0FF029A6220460023183788F855
:1040E0000030BD46BDE8F0876FF01506B0E700BFB1
:1040F000F0AA0000B8A1000000ED00E006AB00004F
:1041000080A9000039AB000051AB000067AB000094
:10411000F4A900002DE9F043774B8BB0D3F804806D
:1041200000AF0546C8F30804002686F31188BFF3E4
:104130006F8F02F07F43B3F17F4F0ED102F00C037B
:10414000082B19D16D4BFB6102236D48BB6107F150
:1041500018024FF4825105F005F900263546002378
:10416000FB71E31E092B00F2A680DFE803F00A9939
:104170009C95A4A4A4A4A49F10074CBF0D4601269F
:10418000EDE7E9465F4BFB614FF0020807F11802CB
:104190005B48C7F818804FF4825105F0E3F800231C
:1041A000554CFB71E36A9A070BD5574BC7E9068359
:1041B000534807F118024FF4825105F0D3F8002458
:1041C00041E0E36A002B01DA504BEFE7E36A5B0062
:1041D000F5D54F4B4A48C7E9068307F118024FF45B
:1041E000825105F0BFF86369AA6943F48073636183
:1041F000BFF34F8FBFF36F8F636932F8022C23F444
:1042000080736361BFF34F8FBFF36F8F4DF60273FF
:104210009A4208D0A36ADBB28BB3FA1D012128466B
:10422000FFF7BCFE3AE088B02B686A46394934484B
:10423000C2E90513032342F8103F4FF4C25105F0C1
:1042400091F82C68CD46FB79ABB92022294607F1BD
:10425000080005F0B8F87B6A002E47D0C3F30802C7
:1042600022B96FEA53236FEA43237B6207F1080107
:104270002046FFF7C9FB2C37BD46BDE8F083A36A93
:1042800013F47F4F04D0F91D0120FFF75BFD05E01B
:10429000A36AB3F5803F92D3FFF7FEFD0446D2E751
:1042A000FA1D0021BBE7F91D0020EEE71A4BFB6168
:1042B0000223BB617CE7194A194B18F4F87FE846E2
:1042C0008AB018BF13466A4616490D48C2E905135D
:1042D0004FF400731384103C134BD4614FF411510D
:1042E00042F8103F05F03EF8C54668E723F4FF7337
:1042F00023F00103B9E700BF00ED00E0B4AB00001C
:10430000B8A10000DFAB0000F6AB000017AC000066
:1043100025AC000044AC000060AC00009BAB00008A
:1043200086AB000084AC000004000001024A53691F
:1043300043F010035361704700ED00E0EFF3088095
:10434000EFF3098101B57246FFF7E4FE01BD00BF3E
:10435000044800232021C2180133302B82F80013B7
:10436000F9D1704700E100E00020134908700020F7
:1043700080F31488BFF36F8FFEF7F8FA00200F491F
:104380000860BFF34F8F0E4880F3088800F02EF8C6
:10439000202080F311880B484FF40461401880F30B
:1043A0000988EFF314800221084380F31488BFF3D7
:1043B0006F8FFFF7DBFB00005116002094ED00E04B
:1043C00080270020C01900200749D1F89020002341
:1043D000C2F307221846934200DB7047C1F89830B9
:1043E000C1F8A0000133F6E700ED00E008B572B6B1
:1043F000002383F31388FFF7E7FF144B4FF0FF32DE
:10440000C3F88020C3F88420C3F88820C3F88C2028
:10441000C3F89020C3F89420C3F89820C3F89C20D8
:10442000C3F88021C3F88421C3F88821C3F88C2104
:10443000C3F89021C3F89421C3F89821C3F89C21B4
:1044400062B6BFF34F8FBFF36F8F08BD00E100E08E
:10445000084B9B6883420BD1EFF3058343B1064BB6
:104460005A6842F080525A605A6A22F400425A62F4
:1044700003F0F0BD1810002000ED00E0024B034AED
:104480000348012100F094B800000420000000203F
:1044900018A30000D0F89820054B403A1A60054A4E
:1044A0004021C3E901121846012100F08BB800BF7A
:1044B0003C0E002000000B152DE9F041DFF8B4E0C0
:1044C0009C4600AF154600238B421ADA4468002C44
:1044D0004DD0BCF1000F1DD0661E344215D06C4685
:1044E00088B06A462449C2E90513032342F8103F05
:1044F000224800234FF4C251FEF7D0FC6FF015059F
:10450000A5462846BD46BDE8F0811F2CE7D90268C4
:104510001642E4D1202C026886685FFA85F814D927
:10452000B4F1004F13D8013CB4FA84F4C4F11F0471
:104530006400B8F1070F46EA04060AD96C4688B051
:104540006A460F4BC2E90535CFE70824F1E73E2460
:10455000EFE722F01F022A4342F0100246F0010664
:10456000CEF89850CEF89C200135CEF8A0600133EB
:104570000C30A9E700ED00E09BAC0000A0A100001A
:10458000BEAC0000044B0522C3F89420BFF34F8F4C
:10459000BFF36F8F704700BF00ED00E0BFF35F8F88
:1045A000024B0022C3F89420704700BF00ED00E0EA
:1045B00010B5034C01232278FFF77EFF207010BD59
:1045C0003E12002008B5094A00231278FFF774FF55
:1045D00010F1160F03D0064B0022072800DD08BD9E
:1045E000C3F89800C3F8A0200130F6E73E1200207F
:1045F00000ED00E014490868082810B521D8FFF73D
:10460000CDFF124C49680022904201F10C0105D106
:104610000F4B1870FFF7B6FF002010BDC4F89820AC
:1046200051F80C3C23F01F03134343F01003C4F86C
:104630009C3051F8043C43F00103C4F8A03001322F
:10464000E2E74FF0FF30E8E724A3000000ED00E0D0
:104650003E120020014B1860704700BF2C00002064
:104660000239012902D8034B1B6818474FF0FF306D
:10467000704700BF2C0000200FB41FB506AB00210F
:1046800053F8042B0548009102210393FDF7EAFA41
:1046900005B05DF804EB04B0704700BFF59300006F
:1046A00010B54FF02003EFF3118083F31288BFF3AE
:1046B0006F8F114A0123C2F840354FF080424FF00E
:1046C0008051C2F87835D1F83041082C08D1D1F8A2
:1046D0003411052904D8094C615C09B1C2F8383697
:1046E0004FF080430122C3F8802580F31188BFF387
:1046F0006F8F002010BD00BF00E00140F3AC000050
:104700004FF08043C0B2C3F81C05BFF34F8F05497B
:10471000054BCA6802F4E0621343CB60BFF34F8FCE
:1047200000BFFDE700ED00E00400FA0520B1034BF7
:10473000800143F001031847704700BF40A200000A
:10474000084B70B5C31A0D4607499B1004465943E0
:104750000648402204F07EFE2B4601462046BDE876
:10476000704018475C0E0020B76DDBB6C09E00009D
:1047700073B50C4C0C4A4023041B00930D460B46AA
:104780000A49A41061430646094804F08FFE011E41
:1047900005DA30462B4602B0BDE87040184702B03B
:1047A00070BD00BF5C0E002017950000B76DDBB632
:1047B000C09E0000002270B5012104461046FFF79C
:1047C000B9F90F4801F06CFE0E4B984215D105F077
:1047D00037F826690C49304604F074F900280BDBE1
:1047E000012535642469084904F11C0004F06AF9C4
:1047F000002801DBE564002070BD6FF00400FBE7DA
:10480000414800000000AD0B44A3000070B5014614
:104810000C2309484B43C418D4E90E5640330022F8
:104820001844A26304F003FE2DB132462B46034820
:10483000BDE87040184770BD5C0E0020C09E0000AF
:1048400010B1012804D07047034B1B6C5B0701D1EA
:10485000FFF7DCBF704700BF5C0E002008B54FF0CB
:104860002003EFF3118183F31288BFF36F8F124A95
:10487000136843F002001060DA0708D481F311884E
:10488000BFF36F8F0120BDE8084004F0E6BF4FF092
:104890008043D3F80C24D3F80C34D307EED5074863
:1048A00004F0C5FD81F31188BFF36F8F0020BDE8D0
:1048B0000840FFF7ABBF00BFAC0E00209C0E0020ED
:1048C0001FB500220123CDE90223094ACDF800D00B
:1048D0006B46CDF804D004F017FE002805DB4FF43A
:1048E00080420023684603F0ABF805B05DF804FB96
:1048F0003595000010B54FF02003EFF3118483F3DA
:104900001288BFF36F8F074A136823F00201DB0799
:10491000116002D4012004F0DCFF84F31188BFF39E
:104920006F8F10BDAC0E0020024AC3B21C2003FBE7
:10493000002070475C0E00202DE9F0413849BFF39C
:104940005B8F0746012251E8003F41E80020002824
:10495000F9D1BFF35B8F33B9324933484B60CB6039
:104960008A6004F0C2F87B1E012B2BD8012F07D1DF
:104970004FF08043D3F81C3403F00303012B21D004
:1049800005F00BF90546F8B9284B1B78E3B14FF059
:1049900080430222C3F808230646DFF894804FF0D4
:1049A0008044D4F81834D4F81824D20316D503F070
:1049B0000303012B01D0012F10D15DB386F31188C1
:1049C000BFF36F8FBDE8F0814FF02003EFF3118646
:1049D00083F31288BFF36F8F0125DEE7ADB1304658
:1049E000FFF706F8D4F81835002BDAD1D4F80421F3
:1049F000002AD6D0C4F80431D4F804310123C4F815
:104A00001835C8F88031A360CBE70021212003F0DE
:104A100001FBE7E74FF080430222C3F80423D1E70C
:104A2000580E0020480E0020780E0020511600205D
:104A300000E100E008B5074805F052F838B1064833
:104A4000FFF708FE0448FCF7E3FF002008BD6FF005
:104A50001200FBE7089F00005D4A00000A2838B5F5
:104A6000074D044604D1AB680D215B682846984782
:104A7000AB6803485B68E1B29847204638BD00BF89
:104A8000089F000030B54068057B01F01F04B2F5B7
:104A9000001F85B044EA451405D1204601F082FF8D
:104AA000002005B030BD0025B2F5800FCDE90255DC
:104AB00014D1B3F1007F0CBF042305238DF8083017
:104AC0000023194602AA204601F0AAFD1F4B984276
:104AD00039D10121204601F01DFFE1E7B3F1C06F9C
:104AE00026D0B3F1007F14BF012302238DF80830D4
:104AF0008368CB40D907E3D4B2F1A07FE0D162094B
:104B0000012A04F01F03124A03F5E07318BF4FF0A7
:104B1000A04252F82330DB07D2D40DF10705294615
:104B2000204601F0A3FE0B4B984203D00395C7E744
:104B30000323DBE7284601F0E7FE044B9842F5D05B
:104B40006FF00B00ADE76FF01500AAE70000AD0BAA
:104B5000000300500400AD0B10B501F0C5FE044683
:104B600068B901F099FE084B98420AD107482146DE
:104B700001F076FE224605210620FEF7DBFF00202D
:104B800010BD6FF00400FBE70000AD0B914B00007F
:104B9000420970B5034602D0012A17D070BD0D4EF0
:104BA000326951680029F9D003F01F0301250C6810
:104BB0009D400029F2D08A682A4002D04B683046D6
:104BC00098472CB1236821461C46F2E7024EE7E7DE
:104BD0002346F8E7F09E0000D89E00002DE9FF4133
:104BE00047683B7B01F01F0545EA43150E46284602
:104BF0000DF10301144601F039FE14F4403F8046E4
:104C00000BD1284601F0F6FE3D4B984503D19DF8A7
:104C1000030001F073FE00200CE00023194602AAF5
:104C20002846CDE9023301F0FBFC354B984204D015
:104C30006FF0150004B0BDE8F081804503D19DF808
:104C4000030001F05BFEA3034BD540F20633234083
:104C5000B3F5837F19D00CD8062B17D004D8ABB18D
:104C6000022BE5D1042311E0B3F5807FE0D10123CD
:104C70000CE040F20222934227D0B3F5407F26D0C9
:104C8000B3F5007FD4D1022300E007238DF8043070
:104C900084F48033C3F30043E0068DF8053054BF3D
:104CA000C4F34013032321038DF8063011D57A682D
:104CB0000123B340C2F80835002201A9284601F0BB
:104CC0005DFD0F4B9842A6D0B2E70523DEE7032334
:104CD000DCE7620341BF01237A68B340C2F80C35B8
:104CE000EAE7E3064FF0000354BFC4F34014032483
:104CF0001A4601A928468DF8044001F091FCE0E72E
:104D00000000AD0B08B543681B68D3F80805D3F85D
:104D10000C1502F0E1F9034B984214BF6FF00F003D
:104D2000002008BD0000AD0BB0B5044682B00022E3
:104D300000AF01210320FEF7FDFE63689D693A1D67
:104D40000021284604F04EFC002827DB7B682A68F7
:104D50001979186800F024F900281FDB60682369BE
:104D6000114A00F1080102F041F8104B984218D0A6
:104D700023686C4688B06A460D49C2E905134FF4B2
:104D8000007393830B4B42F8103F0B4800234FF402
:104D9000E251FEF783F86FF00F00A5460837BD46D5
:104DA000B0BD0020FAE700BFBD4D00000000AD0B14
:104DB00046AD00000300000178A100000378012B3C
:104DC00008D0022B08D04BB9054B0B6201F1100043
:104DD00002F014BE034BF8E7034BF6E7034BF4E78E
:104DE0000000AD0B0100AE0B0200AE0B0100AD0BDD
:104DF00010B511F001034268046986B00FD1C1F308
:104E0000420001280ED0022815D00D4A0592022238
:104E100004920C4804AA4FF48251FEF73FF86FF059
:104E2000150006E013684FF0CC72C3F8242500206B
:104E3000616206B010BD13684FF0CD62F5E700BFA8
:104E400066AD000078A100002DE9F04F8BB000AFF7
:104E500006460C469246BB60D0F80490D0F810800D
:104E60004FF0FF324FF0FF33404602F0E9FD08F10A
:104E70001003FB600022002308F1100002F0E0FDA7
:104E8000484602F015F8DFF804B10025554501D376
:104E9000002453E0237A3B6013F0080172D1122200
:104EA00007F11600796004F099FA3B686068B96808
:104EB000B86103F001022068797513F0020F796878
:104EC0003A75386216D10AF1FF33AB4202D9237D1D
:104ED0005B0711D5002A55D1202207F1140148465D
:104EE00002F012F8584509D0294B984224D16FF0AE
:104EF0000F0423E00A46F0E74022EEE70023F868BB
:104F00004FF4804202F09CFD034610B36C4688B01B
:104F10006A46204BC2E90535032342F8103F1E487C
:104F200000234FF4C251FDF7B9FF4846A54601F0F2
:104F3000CFFF3046FFF7E6FE6FF00404484601F06D
:104F4000C7FF404602F05AFD20462C37BD46BDE85B
:104F5000F08FD8F82010594504F10C0410D06C469D
:104F600088B06A460D48D561C2E90501042142F8BE
:104F7000101F09484FF40151FDF790FFA546DBE7EC
:104F8000013583E76FF08504D8E700BF0000AD0B63
:104F90000B00AD0B78AD000078A10000A2AD0000C1
:104FA0002DE9F0415A4E00EB81010127814202D1E7
:104FB0000020BDE8F081046804F07F03C4F34325BA
:104FC0007F2B4FEA144408BF4FF0FF33222C00F22E
:104FD0009B80DFE804F0122429442C4044999999DD
:104FE000994770999999999999999999737B7E8123
:104FF000999999848A8D90939600C2F80C354FEA5E
:10500000531CBCF1010F03F01F0414BF4FF0A04C60
:10501000B44607FA04F4CCF80845012402E0C2F8CB
:1050200014350024A64624E0C2F80835E7E7C2F8A4
:10503000083500244FEA531EBEF1010F14BF4FF094
:10504000A04EB64603F01F0C07FA0CFCCEF80CC5B8
:105050004FF0010E0DE0C2F80C350124EAE7C2F86A
:105060001035DEE7C2F80835002DDAD10024A64657
:10507000062550F804CB0CF40058B8F1000F4FEAA5
:105080000525CCF3C11803F01F0C4FEA53131CBFC6
:1050900001244FF0000E45EA8805012B0CBF334672
:1050A0004FF0A04345EA0E050CF5E07C45EA4405C7
:1050B00043F82C507AE7C2F80C35D5E7C2F86035D2
:1050C0000468C4F38034002CC7D098E7C2F8643574
:1050D000F6E7C2F86835F3E7C2F86C35F0E7C2F8D6
:1050E000243501244FF0000EC3E7C2F8283586E7C7
:1050F000C2F83035F5E7C2F83435F2E7C2F8383592
:10510000EFE7C2F83C35ECE76FF0850051E700BFF0
:1051100000030050014B01221A60704700C000409C
:105120000C2903690BD15B6A064907484B4393FB83
:10513000F0F100FB113311605360002070476FF0F5
:105140008500704790D0030040420F00044B006977
:105150000022C3F80021D3F8003102F04FBC00BF99
:1051600000C000407FB50569AB6A63B3392901D03F
:105170000C292BD105F110064FF0FF324FF0FF3311
:10518000304602F083FB134B0193A86A03230024EB
:1051900069460394029303F0A8FC4FF0FF324FF0EE
:1051A000FF33284602F04CFCA86A03F0F6FC0A4BD9
:1051B000D3F808256A6201225A60304602F0E0FB0B
:1051C000204604B070BD6FF00A00FAE76FF085006A
:1051D000F7E700BF1551000000C0004010B504699A
:1051E0000020FFF7A1FBA0624FF0FF320021204614
:1051F00004F0F1FC04F1100004F0E6FC00220121AF
:105200000C20FEF797FC0C20FEF764FC024B0122F9
:10521000C3F80423002010BD00C00040F0B54B7956
:10522000012B26D0032B21D110258B79032B1DD1E7
:10523000CE790EB1012E19D10A7912B1022A15D1F7
:105240000E220B684468B3F5164F276867D02DD837
:10525000B3F5165F66D016D8B3F5966F64D00AD84A
:10526000B3F5967F63D0B3F5167F63D06FF08500FA
:1052700054E00025D9E7B3F5166F5ED0B3F5965F1D
:10528000F4D1384B3CE0B3F5E14F59D007D8B3F532
:10529000615F57D0B3F5964FE8D1334B30E047F616
:1052A0001224A342E2D14FF4000329E0B3F5613F99
:1052B0004AD013D8B3F5963F49D009D84DF6C0244B
:1052C000A34246D0B3F5614FD0D14FF46B0317E042
:1052D000B3F5E13FCAD14FF0EB7311E0B3F5612FA5
:1052E0003AD008D8214CA34239D0B3F5E12FBDD133
:1052F0004FF0E86304E01E4CA342B7D14FF0805357
:105300000469C7F82435436835431B682A43C3F84A
:105310006C2503C9231D83E803000020F0BD4FF472
:105320001D03EDE7134BEBE74FF49E23E8E74FF443
:10533000A033E5E74FF41C33E2E74FF41D23DFE72A
:105340000D4BDDE70D4BDBE74FF06C73D8E70C4BF3
:10535000D6E74FF46503D3E74FF07063D0E74FF023
:105360008063CDE700B0130000A04E0090D0030092
:1053700040420F000050270000C0750000F03A00C6
:1053800000903A012DE9F043002287B080460121C8
:105390000220FEF7CFFB0220FEF79CFBD8F804703A
:1053A000D8F810603C680021C4F80015C6F80080E9
:1053B000D7F80C906A46484604F014F9051E25DB20
:1053C000009BD9F8002019791868FFF7E9FD051E40
:1053D0001CDB311D4046FFF721FF0546B0B97B6855
:1053E00099072BD506F1180001F006FC274B9842CF
:1053F00010D0274B05930223049326482B4604AA7A
:105400004FF482516FF00405FDF748FD284607B0C0
:10541000BDE8F083337EDB0003F1804303F5F8330E
:1054200004F10C0204F59071C3F81015C3F81425AB
:10543000327E01239340184AC2F804350823C4F889
:1054400000353B7A53B9C4F81031D4F81031736980
:10545000C4F834350123C4F8383523607B689A07D3
:105460005CBF4FF48073C4F804337B68DB0644BF31
:105470004FF48003C4F804333369C4F8443500237F
:10548000C4F848350123A360E360BFE70000AD0B1B
:10549000F9AD0000D8A1000000F00140F8B50446C5
:1054A00007690D4604F079FBB0B92E4B1B789BB110
:1054B0006426606804F0CCF800BB012004F0BEF95B
:1054C000013EF6D10021212002F0A4FDF0E786F391
:1054D0001188BFF36F8FF5E74FF02003EFF31186CC
:1054E00083F31288BFF36F8F6068314604F0B0F821
:1054F00090B986F31188BFF36F8FEDE74FF020036B
:10550000EFF3118683F31288BFF36F8F6068314623
:1055100004F09EF80028DAD03B691D706268386993
:105520001368C3F844050120C3F848050020C3F8F8
:105530002001D3F82051C3F858015268D3F858011C
:10554000D20608D5626812680820C2F800054FF438
:105550008002C3F8042301229A6081F31188BFF30B
:105560006F8FF8BD5116002070B5012383400E4A9D
:10557000BFF35B8FDC4352E8001F01EA040542E8F9
:105580000056002EF7D1BFF35B8F4FF4803282407C
:105590000648C0F80823BFF35F8FBFF36F8F0B423D
:1055A00014BF0120002070BDF80E00200010014043
:1055B00070B40E49D1E90034D01AC31844F1000484
:1055C00022F07F46C1E90034A6F50013B3F5400F81
:1055D00009D2074B1B681A0A1B069C19054B42F19E
:1055E0000005C3E9004570BC02F06EBE2007002034
:1055F000FC0E00202807002011B3BFF35B8F0123AE
:10560000104A834052E800CF4CEA030C42E800C144
:105610000029F7D1BFF35B8F0B4A4FF480338340EF
:10562000C2F80433094BBFF35B8F1B68BFF35B8F7A
:10563000C340DB0742BF064B4FF40032C3F80021E2
:10564000704700BFF80E002000100140F40E00204B
:1056500000E100E00D4B1868010A0006BFF35F8F00
:105660000B4BD3F80435181841F10001B3F5801F36
:105670000AD2084BD3E90023904271EB030303D213
:1056800010F1807041F10001704700BFFC0E002056
:1056900000100140280700202DE9F74F16461F464D
:1056A0000446FFF761FF0090FFF7D4FFB04271EBB3
:1056B000070351D23A4B301A67EB0101984271F15E
:1056C00000016AD2374B03EB0413D3E902239F4254
:1056D00008BF96424ED034494FF4803904F150054A
:1056E00009FA04F9AD00C1F848932046ADB203F0C1
:1056F000F9FF26F07F4B05F1804504F5A8732B4A8E
:10570000019305F58835DC464FF0030A019B2CF028
:105710007F4041F82300C1F84493D1F804856FF02D
:105720000200A0EB0800604420F07F40904221D9A5
:10573000286860B1D1F80485A8EB0B0020F07F4009
:10574000B0F5000F16D9204603F0CCFF174A0AEB3C
:10575000080C0AF1010AD9E70123154ABFF35B8F50
:10576000A34052E8000F184342E800010029F8D195
:10577000BFF35B8F0B490C98230101EB0412C2E9C4
:105780000267C8500D9B5360002520460099FFF723
:1057900033FF284603B0BDE8F08F6FF01505F4E73E
:1057A000010080001007002000100140FDFF7F0075
:1057B000F40E002073B51B4C1B4BC4F80833C4F81F
:1057C00048331A4B00254FF0FF304FF0FF31C4F83B
:1057D0000855C3E902014FF48033C4F80433144B75
:1057E00002264FF400320121C4F804631120C3F8EB
:1057F00080212A46FEF79EF91120FEF76BF90D4A2B
:105800000123A360236013600B4B0C4A00930195A6
:1058100000232846FFF740FF3046FFF78DF8284663
:1058200002B070BD0010014003000F0010070020FF
:1058300000E100E0F80E0020B1550000FFFF7F00FE
:105840002DE9F7432F4CD4F8043399070BD5D4F83E
:10585000043143B12C4A0023C4F80431D4F8043194
:10586000136801331360D4F80433DA032AD5BFF385
:105870005B8F264B53E8002F22F0010143E8001014
:105880000028F7D1BFF35B8FD30702D4D4F840319F
:10589000C3B10025C4F84051D4F84031FFF7DAFE17
:1058A0004FF02003EFF3118283F31288BFF36F8F61
:1058B000174BD3E90267B042B94106D282F311888F
:1058C000BFF36F8F03B0BDE8F0834FF0FF384FF0A8
:1058D000FF39C3E90289D3E900101D604FF480331A
:1058E000C4F84833C4F84051D4F8403182F31188E9
:1058F000BFF36F8F0029E5D0009032463B46284623
:105900008847DFE700100140FC0E0020F40E002065
:1059100010070020431C13B522D0012822DD124AB3
:10592000124B9042D4BF04461C46FFF793FE104B27
:105930000E49D3E90023801AB0F5000F28BF0024D8
:1059400004448C4228BF0C46A2180A4900914FF02B
:105950000000019043F10003FFF79EFE02B010BD6E
:10596000024CE2E70124E0E7FEFF7F00FFFF7F003B
:1059700020070020B155000008B5FFF76BFE024B71
:105980001B68C01A08BD00BF2007002010B5084CD6
:10599000012363601120FEF7ABF8064BC4F808330F
:1059A000C4F84833044B4FF40032C3F8802110BDD3
:1059B0000010014003000F0000E100E02DE9F04F6E
:1059C00085B0046900AF064604F10208A0254FF037
:1059D000000A7068A7F800A0294603F0B5FE8346C8
:1059E000A0B16C4688B06A463D4BD061C2E905352E
:1059F000042342F8103F4FF401513A4803F091FE5E
:105A0000A54658461437BD46BDE8F08F736802229C
:105A10004FF0030918689B887F60BA6087F80C9084
:105A20008268391DD2F808B00122D847834650B1A8
:105A30006C4688B06A462C4B4FF4C251C2E905301F
:105A400042F8109FD9E73B885ABA28F8022F002B5A
:105A500040D00235EDB2AE2DBBD1A088A4F812B073
:105A6000C0F30B03A380251D5A465B46C2F34601D3
:105A7000D60735F8111046BFC9B24B4083EA11234F
:105A8000082113F4004F4FEA430318BF83F4405337
:105A900001F1FF3118BF1BB211F0FF019BB2F0D131
:105AA0000132102AE2D11D0BB5EB103FA0804FEA66
:105AB000103112D06C4688B06A460C4BD161C2E9F5
:105AC0000535042342F8103F06484FF4015103F016
:105AD00028FEA5466FF0150B93E70123237590E789
